S0170000436F6F6C657253797374656D4170702E7372656303
S11300000C942A000C943F000C943F000C943F0085
S11300100C943F000C943F000C943F000C943F0060
S11300200C943F000C943F000C943F000C943F0050
S11300300C943F000C943F000C943F000C943F0040
S11300400C943F000C943F000C943F000C943F0030
S11300500C943F0011241FBECFE5D8E0DEBFCDBF16
S113006010E0A0E6B0E0E4EFF8E002C005900D92E5
S1130070A437B107D9F70E9454020C9478040C9465
S113008000001ABA87B1806487B986B1876886B9D7
S1130090089587B1816087B986B1806486B936993D
S11300A0FECF84B195B108950E944900BC0180E05F
S11300B090E00E946E0326EF38E24CE950E40E947F
S11300C0FC0320E030E040E251E40E94CD020E94B3
S11300D03F03862F08950E947D020895CF93DF93F6
S11300E0C82FD62F0E94920281E00E94CB0080E6A6
S11300F090E00E94410287E80E94CB008C2F90E0A0
S11301000E94E50180EC0E94CB0086E690E00E940C
S113011041028DEC0E94CB008D2F90E00E94E501FE
S11301202FEF81EE94E0215080409040E1F700C031
S11301300000DF91CF910895843240F485B38E7F1F
S113014085BB8BB38B7F8BBB80E0089595B39160A7
S113015095BB9BB394609BBB9CED980F923088F049
S11301609AED980F923078F098ED980F923068F0ED
S113017096ED980F933058F08D52833050F48AE501
S1130180089582E308958CE3089586E4089580E554
S1130190089584E6089595B39B7F95BB84FF04C0BE
S11301A095B3906195BB03C095B39F7E95BB85FFC6
S11301B004C095B3906295BB03C095B39F7D95BB76
S11301C086FF04C095B3906495BB03C095B39F7B31
S11301D095BB882324F495B3906895BB03C095B36D
S11301E09F7795BB95B3986095BBEFE9FFE0319796
S11301F0F1F700C0000095B3977F95BBEFE9FFE0EE
S11302003197F1F700C0000080FF04C095B39061FE
S113021095BB03C095B39F7E95BB81FF04C095B386
S1130220906295BB03C095B39F7D95BB82FF04C0CC
S113023095B3906495BB03C095B39F7B95BB83FF37
S113024004C085B3806885BB03C085B38F7785BB45
S113025085B3886085BB8FE99FE00197F1F700C003
S1130260000085B3877F85BBEFE9FFE03197F1F7A5
S113027000C00000089584B38C6F84BB83E00E94A7
S1130280CB008FE79EE30197F1F700C0000083E005
S11302900E94CB008FE79EE30197F1F700C00000B6
S11302A083E00E94CB008FE79EE30197F1F700C043
S11302B0000082E00E94CB0088E20E94CB0088E02C
S11302C00E94CB0081E00E94CB0086E00E94CB001C
S11302D08CE00E94CB009FEF29EF80E091502040FA
S11302E08040E1F700C00000089595B3946095BB89
S11302F084FF04C095B3906195BB03C095B39F7E02
S113030095BB85FF04C095B3906295BB03C095B3BC
S11303109F7D95BB86FF04C095B3906495BB03C0D5
S113032095B39F7B95BB882324F495B3906895BBC4
S113033003C095B39F7795BB95B3986095BBEFE9E0
S1130340FFE03197F1F700C0000095B3977F95BBAC
S1130350EFE9FFE03197F1F700C0000080FF04C02F
S113036095B3906195BB03C095B39F7E95BB81FF08
S113037004C095B3906295BB03C095B39F7D95BBB4
S113038082FF04C095B3906495BB03C095B39F7B73
S113039095BB83FF04C085B3806885BB03C085B368
S11303A08F7785BB85B3886085BB8FE99FE0019714
S11303B0F1F700C0000085B3877F85BBEFE9FFE05C
S11303C03197F1F700C0000008951F93CF93DF9396
S11303D000D000D01F92CDB7DEB7AC01892BA1F5B8
S11303E080E30E94750144C09A01ADECBCEC0E940C
S11303F069049695879596958795969587959C011A
S1130400220F331F880F991F880F991F880F991F78
S1130410820F931F9A01281B390BC901E1E0F0E018
S1130420EC0FFD1FE10FF11D17FDFA95805D808330
S11304309A010E946904AC015695479556954795D3
S1130440569547951F5F01C010E04115510561F6AF
S113045011500CC0E1E0F0E0EC0FFD1FE10FF11DC5
S113046017FDFA9580810E94750111501F3F91F785
S11304700F900F900F900F900F90DF91CF911F91DD
S113048008950F931F93CF938C01C0E003C00E9483
S11304907501CF5FF801EC0FF11D80818111F7CF59
S11304A0CF911F910F9108958AB384608ABB84B35E
S11304B0816084BB0E943B010E9441000E94730240
S11304C00E948E020E945400EC01DD27CE010E949E
S11304D09C008C011127C8010E946B00B801CE0159
S11304E00E946E00EFCF81B3806281BB8FB58368B9
S11304F08FBD8EB589608EBD0895682F70E080E051
S113050090E00E94700324E13EEA43E251E40E9439
S1130510FC030E943F037BBD6ABD089581B38F65D0
S113052081BB089592B3906192BB92B39F7B92BBBF
S113053092B3907F92BB22B39DEC899F912D11249D
S1130540969596959695392F3F70232B22BB2FEFC6
S113055031EE44E0215030404040E1F700C000005B
S113056022B32F7E22BB22B3206422BB22B3207F7E
S113057022BB22B3990F392F330F330F930F891BEB
S11305808F70822B82BB8FEF91EE24E081509040DC
S11305902040E1F700C0000008950E94E1020C949D
S11305A0C2030E94BB0358F00E94B40340F029F434
S11305B05F3F29F00C94AB0351110C94F6030C9497
S11305C0B1030E94D30368F39923B1F3552391F344
S11305D0951B550BBB27AA2762177307840738F0AE
S11305E09F5F5F4F220F331F441FAA1FA9F335D00B
S11305F00E2E3AF0E0E832D091505040E695001CBF
S1130600CAF72BD0FE2F29D0660F771F881FBB1F78
S1130610261737074807AB07B0E809F0BB0B802D56
S1130620BF01FF2793585F4F3AF09E3F510578F082
S11306300C94AB030C94F6035F3FE4F3983ED4F3BD
S1130640869577956795B795F7959F5FC9F7880F56
S1130650911D9695879597F90895E1E0660F771FA8
S1130660881FBB1F621773078407BA0720F0621B39
S1130670730B840BBA0BEE1F88F7E09508950E9464
S1130680DB0388F09F5798F0B92F9927B751B0F042
S1130690E1F0660F771F881F991F1AF0BA95C9F702
S11306A014C0B13091F00E94F503B1E008950C94A8
S11306B0F503672F782F8827B85F39F0B93FCCF35B
S11306C0869577956795B395D9F73EF4909580957F
S11306D0709561957F4F8F4F9F4F0895E89409C09F
S11306E097FB3EF490958095709561957F4F8F4F61
S11306F09F4F9923A9F0F92F96E9BB279395F69577
S1130700879577956795B795F111F8CFFAF4BB0FF4
S113071011F460FF1BC06F5F7F4F8F4F9F4F16C058
S1130720882311F096E911C0772321F09EE8872FE2
S1130730762F05C0662371F096E8862F70E060E09E
S11307402AF09A95660F771F881FDAF7880F969517
S1130750879597F9089597F99F6780E870E060E0BE
S113076008959FEF80EC089500240A941616170646
S113077018060906089500240A941216130614068E
S113078005060895092E0394000C11F4882352F0F1
S1130790BB0F40F4BF2B11F460FF04C06F5F7F4FA9
S11307A08F4F9F4F089557FD9058440F551F59F090
S11307B05F3F71F04795880F97FB991F61F09F3F4A
S11307C079F087950895121613061406551FF2CF73
S11307D04695F1DF08C0161617061806991FF1CFC3
S11307E086957105610508940895E894BB276627EA
S11307F07727CB0197F908950E940F040C94C20344
S11308000E94B40338F00E94BB0320F0952311F03A
S11308100C94AB030C94B10311240C94F6030E94C2
S1130820D30370F3959FC1F3950F50E0551F629F5A
S1130830F001729FBB27F00DB11D639FAA27F00D35
S1130840B11DAA1F649F6627B00DA11D661F829F5C
S11308502227B00DA11D621F739FB00DA11D621F41
S1130860839FA00D611D221F749F3327A00D611D5E
S1130870231F849F600D211D822F762F6A2F112440
S11308809F5750409AF0F1F088234AF0EE0FFF1F73
S1130890BB1F661F771F881F91505040A9F79E3FCA
S11308A0510580F00C94AB030C94F6035F3FE4F322
S11308B0983ED4F3869577956795B795F795E79520
S11308C09F5FC1F7FE2B880F911D9695879597F929
S11308D00895A29FB001B39FC001A39F700D811D15
S11308E01124911DB29F700D811D1124911D089535
S10708F0F894FFCFA6
S11308F454656D703A004D6F746F725F7370656503
S1070904643A00004D
S9030000FC
